03300000        2031728918000185340530130005160     007926383           PASSELI PREDIAL E ADMINISTRADOBANCO SANTANDER (BRASIL) S/A            225042023      001628040                                                                          
03349351T01  040 2031728918000185007926383           340530130005160     PASSELI PREDIAL E ADMINISTRADO                                                                                0000162825042023                                         
0334935300001T 09340530130005160        0000001316354214661          1004202300000000024841003334053                         001000014019212724MARCO AURELIO COSTA ZACCARELLI BARREIRA 00130005160000000000002510900000000                      
0334935300002U 090000000000000000000000000000000000000000000000000000000000000000000000000000000000000000000000000000000000000000000000002504202325042023000000000000000000000000000                              000                           
0334935300003T 09340530130005160        0000001316613213076          1004202300000000026474003334053                         001000008743882790ANDREA DE FATIMA DE OLIVEIRA SILVA      00130005160000000000002510900000000                      
0334935300004U 090000000000000000000000000000000000000000000000000000000000000000000000000000000000000000000000000000000000000000000000002504202325042023000000000000000000000000000                              000                           
0334935300005T 09340530130005160        0000001316656213936          1004202300000000010495303334053                         001000002050952759NILCENEI REGINO BELCHIOR                00130005160000000000002510900000000                      
0334935300006U 090000000000000000000000000000000000000000000000000000000000000000000000000000000000000000000000000000000000000000000000002504202325042023000000000000000000000000000                              000                           
0334935300007T 09340530130005160        0000001316885215013          1004202300000000014204103334053                         001000002982415798VILMA ROSA DE ANDRADE                   00130005160000000000002510900000000                      
0334935300008U 090000000000000000000000000000000000000000000000000000000000000000000000000000000000000000000000000000000000000000000000002504202325042023000000000000000000000000000                              000                           
0334935300009T 09340530130005160        0000001317059213201          1004202300000000106242003334053                         002006268807000196GRIM FARMACIA LTDA                      00130005160000000000002510900000000                      
0334935300010U 090000000000000000000000000000000000000000000000000000000000000000000000000000000000000000000000000000000000000000000000002504202325042023000000000000000000000000000                              000                           
0334935300011T 09340530130005160        0000001317067214673          1004202300000000003944103334053                         001000017545592719ARTHUR DE F FERREIRA DA SILVA E LUCAS SI00130005160000000000002510900000000                      
0334935300012U 090000000000000000000000000000000000000000000000000000000000000000000000000000000000000000000000000000000000000000000000002504202325042023000000000000000000000000000                              000                           
0334935300013T 09340530130005160        0000001317563212521          1004202300000000027149203334053                         001000008236768708REGIS VILLA PENHA CASTRO                00130005160000000000002510900000000                      
0334935300014U 090000000000000000000000000000000000000000000000000000000000000000000000000000000000000000000000000000000000000000000000002504202325042023000000000000000000000000000                              000                           
0334935300015T 09340530130005160        0000001317733215037          1004202300000000010875803334053                         001000005319294778CEIR SOARES DE ARAUJO                   00130005160000000000002510900000000                      
0334935300016U 090000000000000000000000000000000000000000000000000000000000000000000000000000000000000000000000000000000000000000000000002504202325042023000000000000000000000000000                              000                           
0334935300017T 06340530130005160        0000001318896214597          2504202300000000009690000100720                         001000041489845704AUGUSTO CESAR ALVES DE SA               00130005160000000000000900400000000                      
0334935300018U 060000000000000000000000000000000000000000000000000000000000000000000000969000000000000969000000000000000000000000000000002504202326042023000000000000000000000000000                              000                           
0334935300019T 06340530130005160        0000001319086214522          2504202300000000010897623771010                         001000017977694727ROBERIO BALTAR TEIXEIRA                 00130005160000000000000900400000000                      
0334935300020U 060000000000000000000000000000000000000000000000000000000000000000000001089760000000001089760000000000000000000000000000002504202326042023000000000000000000000000000                              000                           
0334935300021T 06340530130005160        0000001319141211873          2504202300000000012590603314320                         001000010652497721JULIANA BRASIL RODRIGUES                00130005160000000000000900300000000                      
0334935300022U 060000000000000000000000000000000000000000000000000000000000000000000001259060000000001259060000000000000000000000000000002504202326042023000000000000000000000000000                              000                           
0334935300023T 06340530130005160        0000001319159215078          2504202300000000006507623705410                         001000015370215758NATALIA NOGUEIRA DE A FERNANDES E RITA D00130005160000000000000900400000000                      
0334935300024U 060000000000000000000000000000000000000000000000000000000000000000000000650760000000000650760000000000000000000000000000002504202326042023000000000000000000000000000                              000                           
0334935300025T 06340530130005160        0000001319175215081          2504202300000000010121721200010                         001000010269783784RENATO DE SOUSA BEZERRA                 00130005160000000000000900400000000                      
0334935300026U 060000000000000000000000000000000000000000000000000000000000000000000001012170000000001012170000000000000000000000000000002504202326042023000000000000000000000000000                              000                           
0334935300027T 06340530130005160        0000001319183213645          2504202300000000011721323705430                         001000011249598745ANTONIO CARLOS PERES PERROUT JR  E FATIM00130005160000000000000900400000000                      
0334935300028U 060000000000000000000000000000000000000000000000000000000000000000000001172130000000001172130000000000000000000000000000002504202326042023000000000000000000000000000                              000                           
0334935300029T 06340530130005160        0000001319191212860          2504202300000000007551734113060                         001000009616474774RENATA CARDOSO AVELAR                   00130005160000000000000900400000000                      
0334935300030U 060000000000000000000000000000000000000000000000000000000000000000000000755170000000000755170000000000000000000000000000002504202326042023000000000000000000000000000                              000                           
0334935300031T 06340530130005160        0000001319256214804          2504202300000000008870303315237                         001000013352751773RODOLFO HENRIQUES MACHADO ROCHA  SANDRA 00130005160000000000000900300000000                      
0334935300032U 060000000000000000000000000000000000000000000000000000000000000000000000887030000000000887030000000000000000000000000000002504202326042023000000000000000000000000000                              000                           
0334935300033T 06340530130005160        0000001319418215080          2504202300000000020572500142400                         001000005323959720CELSO DA SILVA PONTES                   00130005160000000000000900400000000                      
0334935300034U 060000000000000000000000000000000000000000000000000000000000000000000002057250000000002057250000000000000000000000000000002504202326042023000000000000000000000000000                              000                           
0334935300035T 06340530130005160        0000001319426214713          2504202300000000007332626000010                         001000012132816794LUIZ FELIPE RANGEL DE JESUS             00130005160000000000000900400000000                      
0334935300036U 060000000000000000000000000000000000000000000000000000000000000000000000733260000000000733260000000000000000000000000000002504202326042023000000000000000000000000000                              000                           
0334935300037T 06340530130005160        0000001319442214981          2504202300000000012343403307935                         001000005906793763MAYKON BRITES DE AZEVEDO                00130005160000000000000900300000000                      
0334935300038U 060000000000000000000000000000000000000000000000000000000000000000000001234340000000001234340000000000000000000000000000002504202326042023000000000000000000000000000                              000                           
0334935300039T 06340530130005160        0000001319507215069          2604202300000000024863626000010                         001000011583024794HANNAH KARINA DE A  BATALHA E ALINE CRIS00130005160000000000000900400000000                      
0334935300040U 060000000000000000000000000000000000000000000000000000000000000000000002486360000000002486360000000000000000000000000000002504202326042023000000000000000000000000000                              000                           
0334935300041T 06340530130005160        0000001319523213612          2504202300000000011963407700010                         001000008114603712DALTON RODRIGUES ALBERNAZ               00130005160000000000000900400000000                      
0334935300042U 060000000000000000000000000000000000000000000000000000000000000000000001196340000000001196340000000000000000000000000000002504202326042023000000000000000000000000000                              000                           
0334935300043T 06340530130005160        0000001319728214290          2504202300000000013232610430280                         001000001567514707MARCELO GOMES DOS SANTOS                00130005160000000000000900400000000                      
0334935300044U 060000000000000000000000000000000000000000000000000000000000000000000001323260000000001323260000000000000000000000000000002504202326042023000000000000000000000000000                              000                           
0334935300045T 06340530130005160        0000001319736214982          2504202300000000009666934182190                         001000010232692793ISABELLA DA CONCEICAO   GILCEA COSTA DA 00130005160000000000000900400000000                      
0334935300046U 060000000000000000000000000000000000000000000000000000000000000000000000966690000000000966690000000000000000000000000000002504202326042023000000000000000000000000000                              000                           
0334935300047T 06340530130005160        0000001319761214265          2704202300000000007578203339764                         001000010256843708LUIZ GUSTAVO GARCIA E JOSE LUIZ DA CONCE00130005160000000000000900300000000                      
0334935300048U 060000000000000000000000000000000000000000000000000000000000000000000000757820000000000757820000000000000000000000000000002504202326042023000000000000000000000000000                              000                           
0334935300049T 06340530130005160        0000001319868214256          0305202300000000008851607700010                         001000015241616756DIOGO DA SILVA PEREIRA                  00130005160000000000000900400000000                      
0334935300050U 060000000000000000000000000000000000000000000000000000000000000000000000885160000000000885160000000000000000000000000000002504202326042023000000000000000000000000000                              000                           
0334935300051T 06340530130005160        0000001319949215034          0105202300000000005391710449780                         001000000463092767VANIA FERREIRA NUNES D FERNANDES E MARIS00130005160000000000000900400000000                      
0334935300052U 060000000000000000000000000000000000000000000000000000000000000000000000539170000000000539170000000000000000000000000000002504202326042023000000000000000000000000000                              000                           
0334935300053T 06340530130005160        0000001319965213729          0505202300000000009467903314320                         001000097447919772MARCOS AUGUSTO REIS MADEIRA             00130005160000000000000900300000000                      
0334935300054U 060000000000000000000000000000000000000000000000000000000000000000000000946790000000000946790000000000000000000000000000002504202326042023000000000000000000000000000                              000                           
03349355         0000540000930000000002161678200000000000000000000000000000000000000000000000000000000000000000000000001339                                                                                                                     
03349359         000001000058                                                                                                                                                                                                                   
