03300000        2031728918000185340530130005160     007926383           PASSELI PREDIAL E ADMINISTRADOBANCO SANTANDER (BRASIL) S/A            230032023      001612040                                                                          
03344021T01  040 2031728918000185007926383           340530130005160     PASSELI PREDIAL E ADMINISTRADO                                                                                0000161230032023                                         
0334402300001T 09340530130005160        0000001311867214426          1503202300000000008442903334053                         001000070886652715RITA DE CASSIA ALVES DA SILVA E EDSON DA00130005160000000000002510900000000                      
0334402300002U 090000000000000000000000000000000000000000000000000000000000000000000000000000000000000000000000000000000000000000000000003003202330032023000000000000000000000000000                              000                           
0334402300003T 09340530130005160        0000001311883214426          1503202300000000006142103334053                         001000070886652715RITA DE CASSIA ALVES DA SILVA E EDSON DA00130005160000000000002510900000000                      
0334402300004U 090000000000000000000000000000000000000000000000000000000000000000000000000000000000000000000000000000000000000000000000003003202330032023000000000000000000000000000                              000                           
0334402300005T 09340530130005160        0000001312571214848          1503202300000000008664803334053                         001000006145618760VICTOR ANCILLOTTI GRANEIRO E RODRIGO DE 00130005160000000000002510900000000                      
0334402300006U 090000000000000000000000000000000000000000000000000000000000000000000000000000000000000000000000000000000000000000000000003003202330032023000000000000000000000000000                              000                           
0334402300007T 09340530130005160        0000001312731210668          1503202300000000025492303334053                         001000004401442725ELENILSON FERNANDES PINTO               00130005160000000000002510900000000                      
0334402300008U 090000000000000000000000000000000000000000000000000000000000000000000000000000000000000000000000000000000000000000000000003003202330032023000000000000000000000000000                              000                           
0334402300009T 09340530130005160        0000001312995213963          1503202300000000011433803334053                         001000007636916746NEUSA MARIA PINTO                       00130005160000000000002510900000000                      
0334402300010U 090000000000000000000000000000000000000000000000000000000000000000000000000000000000000000000000000000000000000000000000003003202330032023000000000000000000000000000                              000                           
0334402300011T 09340530130005160        0000001313045210972          1503202300000000003560003334053                         001000082951934734ALTIVA FONTES CORMACK                   00130005160000000000002510900000000                      
0334402300012U 090000000000000000000000000000000000000000000000000000000000000000000000000000000000000000000000000000000000000000000000003003202330032023000000000000000000000000000                              000                           
0334402300013T 09340530130005160        0000001313355214628          1503202300000000015879803334053                         001000003531970763JOSE CARLOS ROCHA DE SOUZA              00130005160000000000002510900000000                      
0334402300014U 090000000000000000000000000000000000000000000000000000000000000000000000000000000000000000000000000000000000000000000000003003202330032023000000000000000000000000000                              000                           
0334402300015T 06340530130005160        0000001314076215056          3003202300000000014252410446700                         001000078123640706RUBEN DA SILVA FILHO                    00130005160000000000000900400000000                      
0334402300016U 060000000000000000000000000000000000000000000000000000000000000000000001425240000000001425240000000000000000000000000000003003202331032023000000000000000000000000000                              000                           
0334402300017T 06340530130005160        0000001314149214991          3003202300000000013860103329637                         001000013084196788RAPHAELLY COSTA DO NASCIMENTO           00130005160000000000000900300000000                      
0334402300018U 060000000000000000000000000000000000000000000000000000000000000000000001386010000000001386010000000000000000000000000000003003202331032023000000000000000000000000000                              000                           
0334402300019T 06340530130005160        0000001314173214371          3003202300000000013588126000010                         001000011324835737MARTHA ROSA MARTINS CARVALHO            00130005160000000000000900400000000                      
0334402300020U 060000000000000000000000000000000000000000000000000000000000000000000001358810000000001358810000000000000000000000000000003003202331032023000000000000000000000000000                              000                           
0334402300021T 09340530130005160        0000001314211213758          1503202300000000120526303334053                         002031811929000124CLINICA BOM DOUTOR LTDA                 00130005160000000000002510900000000                      
0334402300022U 090000000000000000000000000000000000000000000000000000000000000000000000000000000000000000000000000000000000000000000000003003202330032023000000000000000000000000000                              000                           
0334402300023T 06340530130005160        0000001314408214707          3003202300000000013432123705430                         001000004121969723WILLIAN ALEXANDER DOS SANTOS MENDONCA   00130005160000000000000900400000000                      
0334402300024U 060000000000000000000000000000000000000000000000000000000000000000000001343210000000001343210000000000000000000000000000003003202331032023000000000000000000000000000                              000                           
0334402300025T 06340530130005160        0000001314459214764          2903202300000000011153134172020                         001000012433832756THAIS VASCONCELOS PALMA                 00130005160000000000000900400000000                      
0334402300026U 060000000000223420000000000000000000000000000000000000000000000000000001338730000000001338730000000000000000000000000000003003202331032023000000000000000000000000000                              000                           
0334402300027T 06340530130005160        0000001314599214038          3003202300000000015198500122800                         001000001293261785SANDRO DE ANDRADE CASTELO BRANCO        00130005160000000000000900400000000                      
0334402300028U 060000000000000000000000000000000000000000000000000000000000000000000001519850000000001519850000000000000000000000000000003003202331032023000000000000000000000000000                              000                           
0334402300029T 06340530130005160        0000001315498215129          0104202300000000009309400100010                         001000005871272797MARCOS VINICIUS DA COSTA GONCALVES      00130005160000000000000900400000000                      
0334402300030U 060000000000000000000000000000000000000000000000000000000000000000000000930940000000000930940000000000000000000000000000003003202331032023000000000000000000000000000                              000                           
0334402300031T 09340530130005160        0000001315528214881          0504202300000000015224503334053                         001000013109858711JESSICA BARBOSA PORTELA                 00130005160000000000002511000000000                      
0334402300032U 090000000000000000000000000000000000000000000000000000000000000000000000000000000000000000000000000000000000000000000000003003202330032023000000000000000000000000000                              000                           
0334402300033T 06340530130005160        0000001316176214863          0504202300000000020057134164080                         001000004588559958ANDREIA APARECIDA DA SILVA              00130005160000000000000900400000000                      
0334402300034U 060000000000000000000000000000000000000000000000000000000000000000000002005710000000002005710000000000000000000000000000003003202331032023000000000000000000000000000                              000                           
0334402300035T 06340530130005160        0000001316214215143          3003202300000000025060034160300                         001000004449972708MAURICIO ROZA DA SILVA                  00130005160000000000000900400000000                      
0334402300036U 060000000000000000000000000000000000000000000000000000000000000000000002506000000000002506000000000000000000000000000000003003202331032023000000000000000000000000000                              000                           
0334402300037T 02340530130005160        0000001316231212746          2004202300000000016879303334053                         001000003881461760FAUSTO FERREIRA FARIA                   00130005160000000000001400000000000                      
0334402300038U 020000000000000000000000000000000000000000000000000000000000000000000000000000000000000000000000000000000000000000000000003003202330032023000000000000000000000000000                              000                           
0334402300039T 02340530130005160        0000001316249215070          1104202300000000008882603334053                         001000015129458702JONATHAN OLIVEIRA ADRIANO JOAO          00130005160000000000001400000000000                      
0334402300040U 020000000000000000000000000000000000000000000000000000000000000000000000000000000000000000000000000000000000000000000000003003202330032023000000000000000000000000000                              000                           
0334402300041T 02340530130005160        0000001316257214859          2204202300000000012078003334053                         001000009569001780HERIKA DE OLIVEIRA CADENA               00130005160000000000001400000000000                      
0334402300042U 020000000000000000000000000000000000000000000000000000000000000000000000000000000000000000000000000000000000000000000000003003202330032023000000000000000000000000000                              000                           
0334402300043T 02340530130005160        0000001316265214668          1004202300000000021886003334053                         001000094506051572LUIS CLAUDIO SANTOS DE JESUS            00130005160000000000001400000000000                      
0334402300044U 020000000000000000000000000000000000000000000000000000000000000000000000000000000000000000000000000000000000000000000000003003202330032023000000000000000000000000000                              000                           
0334402300045T 02340530130005160        0000001316273214932          1004202300000000014435803334053                         001000016558732700KARINA DE FARIAS DA ROCHA               00130005160000000000001400000000000                      
0334402300046U 020000000000000000000000000000000000000000000000000000000000000000000000000000000000000000000000000000000000000000000000003003202330032023000000000000000000000000000                              000                           
0334402300047T 02340530130005160        0000001316281214484          1004202300000000015415403334053                         001000065711084615KARLA TEREZA MAGALHAES                  00130005160000000000001400000000000                      
0334402300048U 020000000000000000000000000000000000000000000000000000000000000000000000000000000000000000000000000000000000000000000000003003202330032023000000000000000000000000000                              000                           
0334402300049T 02340530130005160        0000001316291214826          1204202300000000028059503334053                         001000003848218631ANNA CAROLINA DE OLIVEIRA RAMOS E NELIO 00130005160000000000001400000000000                      
0334402300050U 020000000000000000000000000000000000000000000000000000000000000000000000000000000000000000000000000000000000000000000000003003202330032023000000000000000000000000000                              000                           
0334402300051T 02340530130005160        0000001316303214347          1004202300000000019147703334053                         001000061738034704ELSON ALBUQUERQUE REP  GLEICE PERES SANT00130005160000000000001400000000000                      
0334402300052U 020000000000000000000000000000000000000000000000000000000000000000000000000000000000000000000000000000000000000000000000003003202330032023000000000000000000000000000                              000                           
0334402300053T 02340530130005160        0000001316311214545          1004202300000000020917303334053                         001000001172200602HENRIQUE GOMES BARBOSA  DA SILVA        00130005160000000000001400000000000                      
0334402300054U 020000000000000000000000000000000000000000000000000000000000000000000000000000000000000000000000000000000000000000000000003003202330032023000000000000000000000000000                              000                           
0334402300055T 02340530130005160        0000001316321214941          1004202300000000009466303334053                         001000051567571700CONCEICAO CASSIA VIANA                  00130005160000000000001400000000000                      
0334402300056U 020000000000000000000000000000000000000000000000000000000000000000000000000000000000000000000000000000000000000000000000003003202330032023000000000000000000000000000                              000                           
0334402300057T 02340530130005160        0000001316338215087          1004202300000000015632703334053                         001000005655930722FILIPE SALAROLI DA FONSECA              00130005160000000000001400000000000                      
0334402300058U 020000000000000000000000000000000000000000000000000000000000000000000000000000000000000000000000000000000000000000000000003003202330032023000000000000000000000000000                              000                           
0334402300059T 02340530130005160        0000001316346214989          1004202300000000010211903334053                         001000078933609768PAULO SERGIO DOS SANTOS DA SILVEIRA     00130005160000000000001400000000000                      
0334402300060U 020000000000000000000000000000000000000000000000000000000000000000000000000000000000000000000000000000000000000000000000003003202330032023000000000000000000000000000                              000                           
0334402300061T 02340530130005160        0000001316354214661          1004202300000000024841003334053                         001000014019212724MARCO AURELIO COSTA ZACCARELLI BARREIRA 00130005160000000000001400000000000                      
0334402300062U 020000000000000000000000000000000000000000000000000000000000000000000000000000000000000000000000000000000000000000000000003003202330032023000000000000000000000000000                              000                           
0334402300063T 02340530130005160        0000001316362214944          1304202300000000016864203334053                         001000000593085752VALERIA S  DA COSTA E FERNANDO CESAR GUR00130005160000000000001400000000000                      
0334402300064U 020000000000000000000000000000000000000000000000000000000000000000000000000000000000000000000000000000000000000000000000003003202330032023000000000000000000000000000                              000                           
0334402300065T 02340530130005160        0000001316397214279          0504202300000000011561003334053                         001000003201526770RENATO TEIXEIRA RANGEL                  00130005160000000000001400000000000                      
0334402300066U 020000000000000000000000000000000000000000000000000000000000000000000000000000000000000000000000000000000000000000000000003003202330032023000000000000000000000000000                              000                           
0334402300067T 02340530130005160        0000001316401212861          0104202300000000012000703334053                         001000023527692720SERGIO ROBERTO MACHADO DA COSTA         00130005160000000000001400000000000                      
0334402300068U 020000000000000000000000000000000000000000000000000000000000000000000000000000000000000000000000000000000000000000000000003003202330032023000000000000000000000000000                              000                           
0334402300069T 02340530130005160        0000001316419213636          0204202300000000022099903334053                         001000092701639700SUELI GOMES NEVES                       00130005160000000000001400000000000                      
0334402300070U 020000000000000000000000000000000000000000000000000000000000000000000000000000000000000000000000000000000000000000000000003003202330032023000000000000000000000000000                              000                           
0334402300071T 02340530130005160        0000001316427214883          0304202300000000009508503334053                         001000011158044720MARCELLE SALES LEITE E LEONARDO ANTUNES 00130005160000000000001400000000000                      
0334402300072U 020000000000000000000000000000000000000000000000000000000000000000000000000000000000000000000000000000000000000000000000003003202330032023000000000000000000000000000                              000                           
0334402300073T 02340530130005160        0000001316435212837          0204202300000000013294203334053                         001000043125603315LUIS CERGIO JERONIMO                    00130005160000000000001400000000000                      
0334402300074U 020000000000000000000000000000000000000000000000000000000000000000000000000000000000000000000000000000000000000000000000003003202330032023000000000000000000000000000                              000                           
0334402300075T 02340530130005160        0000001316443214605          0504202300000000019636303334053                         001000036611417753SHIRLEY COELHO DA SILVA E MARCOS ANTONIO00130005160000000000001400000000000                      
0334402300076U 020000000000000000000000000000000000000000000000000000000000000000000000000000000000000000000000000000000000000000000000003003202330032023000000000000000000000000000                              000                           
0334402300077T 02340530130005160        0000001316451212485          0504202300000000034472303334053                         001000003231685745ZELITA CAMPOS                           00130005160000000000001400000000000                      
0334402300078U 020000000000000000000000000000000000000000000000000000000000000000000000000000000000000000000000000000000000000000000000003003202330032023000000000000000000000000000                              000                           
0334402300079T 02340530130005160        0000001316461214882          0504202300000000013166803334053                         001000028943945787TELMO BORGES DA SILVEIRA                00130005160000000000001400000000000                      
0334402300080U 020000000000000000000000000000000000000000000000000000000000000000000000000000000000000000000000000000000000000000000000003003202330032023000000000000000000000000000                              000                           
0334402300081T 02340530130005160        0000001316478210419          0504202300000000011636403334053                         001000022332634720JOSE BEZERRA NETO                       00130005160000000000001400000000000                      
0334402300082U 020000000000000000000000000000000000000000000000000000000000000000000000000000000000000000000000000000000000000000000000003003202330032023000000000000000000000000000                              000                           
0334402300083T 02340530130005160        0000001316486211714          0104202300000000021869303334053                         001000053257804687CARLOS HENRIQUE VILELA FINOCHIO         00130005160000000000001400000000000                      
0334402300084U 020000000000000000000000000000000000000000000000000000000000000000000000000000000000000000000000000000000000000000000000003003202330032023000000000000000000000000000                              000                           
0334402300085T 02340530130005160        0000001316494214930          1304202300000000016497303334053                         001000094213844749CARLOS ROBERTO ALVES DE PAIVA           00130005160000000000001400000000000                      
0334402300086U 020000000000000000000000000000000000000000000000000000000000000000000000000000000000000000000000000000000000000000000000003003202330032023000000000000000000000000000                              000                           
0334402300087T 02340530130005160        0000001316508214608          1204202300000000180865003334053                         001000055782442620DALMO MOURA DE CASTRO                   00130005160000000000001400000000000                      
0334402300088U 020000000000000000000000000000000000000000000000000000000000000000000000000000000000000000000000000000000000000000000000003003202330032023000000000000000000000000000                              000                           
0334402300089T 02340530130005160        0000001316516214881          0504202300000000013061403334053                         001000013109858711JESSICA BARBOSA PORTELA                 00130005160000000000001400000000000                      
0334402300090U 020000000000000000000000000000000000000000000000000000000000000000000000000000000000000000000000000000000000000000000000003003202330032023000000000000000000000000000                              000                           
0334402300091T 02340530130005160        0000001316524214516          0504202300000000117712003334053                         001000002900728673RODRIGO BARBOSA OLIVEIRA                00130005160000000000001400000000000                      
0334402300092U 020000000000000000000000000000000000000000000000000000000000000000000000000000000000000000000000000000000000000000000000003003202330032023000000000000000000000000000                              000                           
03344025         0000920001660000000004242056200000000000000000000000000000000000000000000000000000000000000000000000001323                                                                                                                     
03344029         000001000096                                                                                                                                                                                                                   
